{
  "contractName": "Fundraiser",
  "abi": [
    {
      "inputs": [
        {
          "internalType": "string",
          "name": "_name",
          "type": "string"
        },
        {
          "internalType": "string",
          "name": "_url",
          "type": "string"
        },
        {
          "internalType": "string",
          "name": "_imageURL",
          "type": "string"
        },
        {
          "internalType": "string",
          "name": "_description",
          "type": "string"
        },
        {
          "internalType": "address payable",
          "name": "_beneficiary",
          "type": "address"
        },
        {
          "internalType": "address",
          "name": "_custodian",
          "type": "address"
        }
      ],
      "stateMutability": "nonpayable",
      "type": "constructor"
    },
    {
      "anonymous": false,
      "inputs": [
        {
          "indexed": true,
          "internalType": "address",
          "name": "donor",
          "type": "address"
        },
        {
          "indexed": false,
          "internalType": "uint256",
          "name": "value",
          "type": "uint256"
        }
      ],
      "name": "DonationReceived",
      "type": "event"
    },
    {
      "anonymous": false,
      "inputs": [
        {
          "indexed": true,
          "internalType": "address",
          "name": "previousOwner",
          "type": "address"
        },
        {
          "indexed": true,
          "internalType": "address",
          "name": "newOwner",
          "type": "address"
        }
      ],
      "name": "OwnershipTransferred",
      "type": "event"
    },
    {
      "anonymous": false,
      "inputs": [
        {
          "indexed": false,
          "internalType": "uint256",
          "name": "amount",
          "type": "uint256"
        }
      ],
      "name": "Withdraw",
      "type": "event"
    },
    {
      "stateMutability": "payable",
      "type": "fallback"
    },
    {
      "inputs": [],
      "name": "beneficiary",
      "outputs": [
        {
          "internalType": "address payable",
          "name": "",
          "type": "address"
        }
      ],
      "stateMutability": "view",
      "type": "function"
    },
    {
      "inputs": [],
      "name": "description",
      "outputs": [
        {
          "internalType": "string",
          "name": "",
          "type": "string"
        }
      ],
      "stateMutability": "view",
      "type": "function"
    },
    {
      "inputs": [],
      "name": "donationsCount",
      "outputs": [
        {
          "internalType": "uint256",
          "name": "",
          "type": "uint256"
        }
      ],
      "stateMutability": "view",
      "type": "function"
    },
    {
      "inputs": [],
      "name": "imageURL",
      "outputs": [
        {
          "internalType": "string",
          "name": "",
          "type": "string"
        }
      ],
      "stateMutability": "view",
      "type": "function"
    },
    {
      "inputs": [],
      "name": "name",
      "outputs": [
        {
          "internalType": "string",
          "name": "",
          "type": "string"
        }
      ],
      "stateMutability": "view",
      "type": "function"
    },
    {
      "inputs": [],
      "name": "owner",
      "outputs": [
        {
          "internalType": "address",
          "name": "",
          "type": "address"
        }
      ],
      "stateMutability": "view",
      "type": "function"
    },
    {
      "inputs": [],
      "name": "renounceOwnership",
      "outputs": [],
      "stateMutability": "nonpayable",
      "type": "function"
    },
    {
      "inputs": [],
      "name": "totalDonations",
      "outputs": [
        {
          "internalType": "uint256",
          "name": "",
          "type": "uint256"
        }
      ],
      "stateMutability": "view",
      "type": "function"
    },
    {
      "inputs": [
        {
          "internalType": "address",
          "name": "newOwner",
          "type": "address"
        }
      ],
      "name": "transferOwnership",
      "outputs": [],
      "stateMutability": "nonpayable",
      "type": "function"
    },
    {
      "inputs": [],
      "name": "url",
      "outputs": [
        {
          "internalType": "string",
          "name": "",
          "type": "string"
        }
      ],
      "stateMutability": "view",
      "type": "function"
    },
    {
      "inputs": [
        {
          "internalType": "address payable",
          "name": "_beneficiary",
          "type": "address"
        }
      ],
      "name": "setBeneficiary",
      "outputs": [],
      "stateMutability": "nonpayable",
      "type": "function"
    },
    {
      "inputs": [],
      "name": "myDonationsCount",
      "outputs": [
        {
          "internalType": "uint256",
          "name": "",
          "type": "uint256"
        }
      ],
      "stateMutability": "view",
      "type": "function"
    },
    {
      "inputs": [],
      "name": "donate",
      "outputs": [],
      "stateMutability": "payable",
      "type": "function"
    },
    {
      "inputs": [],
      "name": "myDonations",
      "outputs": [
        {
          "internalType": "uint256[]",
          "name": "values",
          "type": "uint256[]"
        },
        {
          "internalType": "uint256[]",
          "name": "dates",
          "type": "uint256[]"
        }
      ],
      "stateMutability": "view",
      "type": "function"
    },
    {
      "inputs": [],
      "name": "withdraw",
      "outputs": [],
      "stateMutability": "nonpayable",
      "type": "function"
    }
  ],
  "bytecode": "0x60806040523480156200001157600080fd5b506040516200196f3803806200196f8339818101604052810190620000379190620004dc565b620000576200004b6200011960201b60201c565b6200012160201b60201c565b85600290805190602001906200006f929190620001e5565b50846003908051906020019062000088929190620001e5565b508360049080519060200190620000a1929190620001e5565b508260059080519060200190620000ba929190620001e5565b5081600660006101000a81548173ffffffffffffffffffffffffffffffffffffffff021916908373ffffffffffffffffffffffffffffffffffffffff1602179055506200010d816200012160201b60201c565b50505050505062000658565b600033905090565b60008060009054906101000a900473ffffffffffffffffffffffffffffffffffffffff169050816000806101000a81548173ffffffffffffffffffffffffffffffffffffffff021916908373ffffffffffffffffffffffffffffffffffffffff1602179055508173ffffffffffffffffffffffffffffffffffffffff168173ffffffffffffffffffffffffffffffffffffffff167f8be0079c531659141344cd1fd0a4f28419497f9722a3daafe3b4186f6b6457e060405160405180910390a35050565b828054620001f39062000623565b90600052602060002090601f01602090048101928262000217576000855562000263565b82601f106200023257805160ff191683800117855562000263565b8280016001018555821562000263579182015b828111156200026257825182559160200191906001019062000245565b5b50905062000272919062000276565b5090565b5b808211156200029157600081600090555060010162000277565b5090565b6000604051905090565b600080fd5b600080fd5b600080fd5b600080fd5b6000601f19601f8301169050919050565b7f4e487b7100000000000000000000000000000000000000000000000000000000600052604160045260246000fd5b620002fe82620002b3565b810181811067ffffffffffffffff8211171562000320576200031f620002c4565b5b80604052505050565b60006200033562000295565b9050620003438282620002f3565b919050565b600067ffffffffffffffff821115620003665762000365620002c4565b5b6200037182620002b3565b9050602081019050919050565b60005b838110156200039e57808201518184015260208101905062000381565b83811115620003ae576000848401525b50505050565b6000620003cb620003c58462000348565b62000329565b905082815260208101848484011115620003ea57620003e9620002ae565b5b620003f78482856200037e565b509392505050565b600082601f830112620004175762000416620002a9565b5b815162000429848260208601620003b4565b91505092915050565b600073ffffffffffffffffffffffffffffffffffffffff82169050919050565b60006200045f8262000432565b9050919050565b620004718162000452565b81146200047d57600080fd5b50565b600081519050620004918162000466565b92915050565b6000620004a48262000432565b9050919050565b620004b68162000497565b8114620004c257600080fd5b50565b600081519050620004d681620004ab565b92915050565b60008060008060008060c08789031215620004fc57620004fb6200029f565b5b600087015167ffffffffffffffff8111156200051d576200051c620002a4565b5b6200052b89828a01620003ff565b965050602087015167ffffffffffffffff8111156200054f576200054e620002a4565b5b6200055d89828a01620003ff565b955050604087015167ffffffffffffffff811115620005815762000580620002a4565b5b6200058f89828a01620003ff565b945050606087015167ffffffffffffffff811115620005b357620005b2620002a4565b5b620005c189828a01620003ff565b9350506080620005d489828a0162000480565b92505060a0620005e789828a01620004c5565b9150509295509295509295565b7f4e487b7100000000000000000000000000000000000000000000000000000000600052602260045260246000fd5b600060028204905060018216806200063c57607f821691505b602082108103620006525762000651620005f4565b5b50919050565b61130780620006686000396000f3fe6080604052600436106100ec5760003560e01c80635600f04f1161008a578063b90497e011610059578063b90497e0146102d5578063de2ed89314610300578063ed88c68e1461032b578063f2fde38b14610335576100ed565b80635600f04f1461023d578063715018a6146102685780637284e4161461027f5780638da5cb5b146102aa576100ed565b80631c31f710116100c65780631c31f710146101a75780631f522595146101d057806338af3eed146101fb5780633ccfd60b14610226576100ed565b80630180b97c1461012557806306fdde03146101505780631a57f7b41461017b576100ed565b5b6101023460075461035e90919063ffffffff16565b60078190555061011e600160085461035e90919063ffffffff16565b6008819055005b34801561013157600080fd5b5061013a610374565b6040516101479190610d2e565b60405180910390f35b34801561015c57600080fd5b506101656103be565b6040516101729190610de2565b60405180910390f35b34801561018757600080fd5b5061019061044c565b60405161019e929190610ec2565b60405180910390f35b3480156101b357600080fd5b506101ce60048036038101906101c99190610f5c565b6105c1565b005b3480156101dc57600080fd5b506101e5610681565b6040516101f29190610d2e565b60405180910390f35b34801561020757600080fd5b50610210610687565b60405161021d9190610f98565b60405180910390f35b34801561023257600080fd5b5061023b6106ad565b005b34801561024957600080fd5b506102526107d1565b60405161025f9190610de2565b60405180910390f35b34801561027457600080fd5b5061027d61085f565b005b34801561028b57600080fd5b506102946108e7565b6040516102a19190610de2565b60405180910390f35b3480156102b657600080fd5b506102bf610975565b6040516102cc9190610fd4565b60405180910390f35b3480156102e157600080fd5b506102ea61099e565b6040516102f79190610de2565b60405180910390f35b34801561030c57600080fd5b50610315610a2c565b6040516103229190610d2e565b60405180910390f35b610333610a32565b005b34801561034157600080fd5b5061035c6004803603810190610357919061101b565b610b52565b005b6000818361036c9190611077565b905092915050565b6000600160003373ffffffffffffffffffffffffffffffffffffffff1673ffffffffffffffffffffffffffffffffffffffff16815260200190815260200160002080549050905090565b600280546103cb906110fc565b80601f01602080910402602001604051908101604052809291908181526020018280546103f7906110fc565b80156104445780601f1061041957610100808354040283529160200191610444565b820191906000526020600020905b81548152906001019060200180831161042757829003601f168201915b505050505081565b6060806000610459610374565b90508067ffffffffffffffff8111156104755761047461112d565b5b6040519080825280602002602001820160405280156104a35781602001602082028036833780820191505090505b5092508067ffffffffffffffff8111156104c0576104bf61112d565b5b6040519080825280602002602001820160405280156104ee5781602001602082028036833780820191505090505b50915060005b818110156105bb576000600160003373ffffffffffffffffffffffffffffffffffffffff1673ffffffffffffffffffffffffffffffffffffffff168152602001908152602001600020828154811061054f5761054e61115c565b5b9060005260206000209060020201905080600001548583815181106105775761057661115c565b5b602002602001018181525050806001015484838151811061059b5761059a61115c565b5b6020026020010181815250505080806105b39061118b565b9150506104f4565b50509091565b6105c9610c49565b73ffffffffffffffffffffffffffffffffffffffff166105e7610975565b73ffffffffffffffffffffffffffffffffffffffff161461063d576040517f08c379a00000000000000000000000000000000000000000000000000000000081526004016106349061121f565b60405180910390fd5b80600660006101000a81548173ffffffffffffffffffffffffffffffffffffffff021916908373ffffffffffffffffffffffffffffffffffffffff16021790555050565b60085481565b600660009054906101000a900473ffffffffffffffffffffffffffffffffffffffff1681565b6106b5610c49565b73ffffffffffffffffffffffffffffffffffffffff166106d3610975565b73ffffffffffffffffffffffffffffffffffffffff1614610729576040517f08c379a00000000000000000000000000000000000000000000000000000000081526004016107209061121f565b60405180910390fd5b6000479050600660009054906101000a900473ffffffffffffffffffffffffffffffffffffffff1673ffffffffffffffffffffffffffffffffffffffff166108fc829081150290604051600060405180830381858888f19350505050158015610796573d6000803e3d6000fd5b507f5b6b431d4476a211bb7d41c20d1aab9ae2321deee0d20be3d9fc9b1093fa6e3d816040516107c69190610d2e565b60405180910390a150565b600380546107de906110fc565b80601f016020809104026020016040519081016040528092919081815260200182805461080a906110fc565b80156108575780601f1061082c57610100808354040283529160200191610857565b820191906000526020600020905b81548152906001019060200180831161083a57829003601f168201915b505050505081565b610867610c49565b73ffffffffffffffffffffffffffffffffffffffff16610885610975565b73ffffffffffffffffffffffffffffffffffffffff16146108db576040517f08c379a00000000000000000000000000000000000000000000000000000000081526004016108d29061121f565b60405180910390fd5b6108e56000610c51565b565b600580546108f4906110fc565b80601f0160208091040260200160405190810160405280929190818152602001828054610920906110fc565b801561096d5780601f106109425761010080835404028352916020019161096d565b820191906000526020600020905b81548152906001019060200180831161095057829003601f168201915b505050505081565b60008060009054906101000a900473ffffffffffffffffffffffffffffffffffffffff16905090565b600480546109ab906110fc565b80601f01602080910402602001604051908101604052809291908181526020018280546109d7906110fc565b8015610a245780601f106109f957610100808354040283529160200191610a24565b820191906000526020600020905b815481529060010190602001808311610a0757829003601f168201915b505050505081565b60075481565b60006040518060400160405280348152602001428152509050600160003373ffffffffffffffffffffffffffffffffffffffff1673ffffffffffffffffffffffffffffffffffffffff16815260200190815260200160002081908060018154018082558091505060019003906000526020600020906002020160009091909190915060008201518160000155602082015181600101555050610adf3460075461035e90919063ffffffff16565b600781905550610afb600160085461035e90919063ffffffff16565b6008819055503373ffffffffffffffffffffffffffffffffffffffff167f264f630d9efa0d07053a31163641d9fcc0adafc9d9e76f1c37c2ce3a558d2c5234604051610b479190610d2e565b60405180910390a250565b610b5a610c49565b73ffffffffffffffffffffffffffffffffffffffff16610b78610975565b73ffffffffffffffffffffffffffffffffffffffff1614610bce576040517f08c379a0000000000000000000000000000000000000000000000000000000008152600401610bc59061121f565b60405180910390fd5b600073ffffffffffffffffffffffffffffffffffffffff168173ffffffffffffffffffffffffffffffffffffffff1603610c3d576040517f08c379a0000000000000000000000000000000000000000000000000000000008152600401610c34906112b1565b60405180910390fd5b610c4681610c51565b50565b600033905090565b60008060009054906101000a900473ffffffffffffffffffffffffffffffffffffffff169050816000806101000a81548173ffffffffffffffffffffffffffffffffffffffff021916908373ffffffffffffffffffffffffffffffffffffffff1602179055508173ffffffffffffffffffffffffffffffffffffffff168173ffffffffffffffffffffffffffffffffffffffff167f8be0079c531659141344cd1fd0a4f28419497f9722a3daafe3b4186f6b6457e060405160405180910390a35050565b6000819050919050565b610d2881610d15565b82525050565b6000602082019050610d436000830184610d1f565b92915050565b600081519050919050565b600082825260208201905092915050565b60005b83811015610d83578082015181840152602081019050610d68565b83811115610d92576000848401525b50505050565b6000601f19601f8301169050919050565b6000610db482610d49565b610dbe8185610d54565b9350610dce818560208601610d65565b610dd781610d98565b840191505092915050565b60006020820190508181036000830152610dfc8184610da9565b905092915050565b600081519050919050565b600082825260208201905092915050565b6000819050602082019050919050565b610e3981610d15565b82525050565b6000610e4b8383610e30565b60208301905092915050565b6000602082019050919050565b6000610e6f82610e04565b610e798185610e0f565b9350610e8483610e20565b8060005b83811015610eb5578151610e9c8882610e3f565b9750610ea783610e57565b925050600181019050610e88565b5085935050505092915050565b60006040820190508181036000830152610edc8185610e64565b90508181036020830152610ef08184610e64565b90509392505050565b600080fd5b600073ffffffffffffffffffffffffffffffffffffffff82169050919050565b6000610f2982610efe565b9050919050565b610f3981610f1e565b8114610f4457600080fd5b50565b600081359050610f5681610f30565b92915050565b600060208284031215610f7257610f71610ef9565b5b6000610f8084828501610f47565b91505092915050565b610f9281610f1e565b82525050565b6000602082019050610fad6000830184610f89565b92915050565b6000610fbe82610efe565b9050919050565b610fce81610fb3565b82525050565b6000602082019050610fe96000830184610fc5565b92915050565b610ff881610fb3565b811461100357600080fd5b50565b60008135905061101581610fef565b92915050565b60006020828403121561103157611030610ef9565b5b600061103f84828501611006565b91505092915050565b7f4e487b7100000000000000000000000000000000000000000000000000000000600052601160045260246000fd5b600061108282610d15565b915061108d83610d15565b9250827fffffffffffffffffffffffffffffffffffffffffffffffffffffffffffffffff038211156110c2576110c1611048565b5b828201905092915050565b7f4e487b7100000000000000000000000000000000000000000000000000000000600052602260045260246000fd5b6000600282049050600182168061111457607f821691505b602082108103611127576111266110cd565b5b50919050565b7f4e487b7100000000000000000000000000000000000000000000000000000000600052604160045260246000fd5b7f4e487b7100000000000000000000000000000000000000000000000000000000600052603260045260246000fd5b600061119682610d15565b91507fffffffffffffffffffffffffffffffffffffffffffffffffffffffffffffffff82036111c8576111c7611048565b5b600182019050919050565b7f4f776e61626c653a2063616c6c6572206973206e6f7420746865206f776e6572600082015250565b6000611209602083610d54565b9150611214826111d3565b602082019050919050565b60006020820190508181036000830152611238816111fc565b9050919050565b7f4f776e61626c653a206e6577206f776e657220697320746865207a65726f206160008201527f6464726573730000000000000000000000000000000000000000000000000000602082015250565b600061129b602683610d54565b91506112a68261123f565b604082019050919050565b600060208201905081810360008301526112ca8161128e565b905091905056fea264697066735822122034d84268c38996fdb938fca07da55357469e859ed679c41b369066a42081055764736f6c634300080d0033",
  "immutableReferences": {},
  "source": "// SPDX-License-Identifier: MIT\npragma solidity >= 0.4.23 < 0.9.0;\nimport \"../client/node_modules/@openzeppelin/contracts/access/Ownable.sol\";\nimport \"../client/node_modules/@openzeppelin/contracts/utils/math/SafeMath.sol\";\n\ncontract Fundraiser is Ownable{\n\n    using SafeMath for uint256;\n\n    struct Donation{\n        uint256 value;\n        uint256 date;\n    }\n\n    mapping(address => Donation[]) private _donations;\n\n    event DonationReceived(address indexed donor, uint256 value);\n    event Withdraw(uint256 amount);\n\n    string public name;\n    string public url;\n    string public imageURL;\n    string public description;\n\n    address payable public beneficiary;\n\n    uint256 public totalDonations;\n    uint256 public donationsCount;\n\n    constructor(string memory _name, string memory _url, string memory _imageURL, string memory _description, address payable _beneficiary, address _custodian) public {\n        name = _name;\n        url = _url;\n        imageURL = _imageURL;\n        description = _description;\n        beneficiary = _beneficiary;\n        _transferOwnership(_custodian);\n    }\n\n    fallback () external payable {\n        totalDonations = totalDonations.add(msg.value);\n        donationsCount = donationsCount.add(1);\n    }\n\n    function setBeneficiary(address payable _beneficiary) public onlyOwner{\n        beneficiary = _beneficiary;\n    }\n\n    function myDonationsCount() public view returns(uint256){\n        return _donations[msg.sender].length;\n    }\n\n    function donate() public payable{\n        Donation memory donation = Donation({\n            value: msg.value,\n            date: block.timestamp\n        });\n        _donations[msg.sender].push(donation);\n        totalDonations = totalDonations.add(msg.value);\n        donationsCount = donationsCount.add(1);\n        emit DonationReceived(msg.sender, msg.value);\n    }\n    \n    function myDonations() public view returns(uint256[] memory values, uint256[] memory dates){\n        uint256 count = myDonationsCount();\n        values = new uint256[](count);\n        dates = new uint256[](count);\n\n        for(uint256 i = 0; i<count; i++){\n            Donation storage donation = _donations[msg.sender][i];\n            values[i] = donation.value;\n            dates[i] = donation.date;\n        }\n\n        return (values, dates);\n    }\n\n    function withdraw() public onlyOwner{\n        uint256 balance = address(this).balance;\n        beneficiary.transfer(balance);\n        emit Withdraw(balance);\n    }\n}",
  "sourcePath": "/Users/bp/Desktop/practicecs/blockchain_work/smartcontractdevpractice/fundraiser practice d-app/contracts/Fundraiser.sol",
  "compiler": {
    "name": "solc",
    "version": "0.8.13+commit.abaa5c0e.Emscripten.clang"
  },
  "schemaVersion": "3.4.6",
  "updatedAt": "2022-04-04T05:08:15.524Z",
  "devdoc": {
    "kind": "dev",
    "methods": {
      "owner()": {
        "details": "Returns the address of the current owner."
      },
      "renounceOwnership()": {
        "details": "Leaves the contract without owner. It will not be possible to call `onlyOwner` functions anymore. Can only be called by the current owner. NOTE: Renouncing ownership will leave the contract without an owner, thereby removing any functionality that is only available to the owner."
      },
      "transferOwnership(address)": {
        "details": "Transfers ownership of the contract to a new account (`newOwner`). Can only be called by the current owner."
      }
    },
    "version": 1
  },
  "userdoc": {
    "kind": "user",
    "methods": {},
    "version": 1
  }
}